{
  "_format": "hh-sol-artifact-1",
  "contractName": "MerkleProof",
  "sourceName": "contracts/MerkleProof.sol",
  "abi": [
    {
      "inputs": [
        {
          "internalType": "bytes32[]",
          "name": "proof",
          "type": "bytes32[]"
        },
        {
          "internalType": "bytes32",
          "name": "root",
          "type": "bytes32"
        },
        {
          "internalType": "bytes32",
          "name": "leaf",
          "type": "bytes32"
        },
        {
          "internalType": "uint256",
          "name": "index",
          "type": "uint256"
        }
      ],
      "name": "verify",
      "outputs": [
        {
          "internalType": "bool",
          "name": "",
          "type": "bool"
        }
      ],
      "stateMutability": "pure",
      "type": "function"
    }
  ],
  "bytecode": "0x608060405234801561001057600080fd5b50610502806100206000396000f3fe608060405234801561001057600080fd5b506004361061002b5760003560e01c806321fb335c14610030575b600080fd5b61004a60048036038101906100459190610306565b610060565b60405161005791906103a4565b60405180910390f35b60008083905060005b865181101561011e576000878281518110610087576100866103bf565b5b6020026020010151905060006002866100a0919061041d565b036100d55782816040516020016100b892919061046f565b604051602081830303815290604052805190602001209250610101565b80836040516020016100e892919061046f565b6040516020818303038152906040528051906020012092505b60028561010e919061049b565b9450508080600101915050610069565b50848114915050949350505050565b6000604051905090565b600080fd5b600080fd5b600080fd5b6000601f19601f8301169050919050565b7f4e487b7100000000000000000000000000000000000000000000000000000000600052604160045260246000fd5b61018f82610146565b810181811067ffffffffffffffff821117156101ae576101ad610157565b5b80604052505050565b60006101c161012d565b90506101cd8282610186565b919050565b600067ffffffffffffffff8211156101ed576101ec610157565b5b602082029050602081019050919050565b600080fd5b6000819050919050565b61021681610203565b811461022157600080fd5b50565b6000813590506102338161020d565b92915050565b600061024c610247846101d2565b6101b7565b9050808382526020820190506020840283018581111561026f5761026e6101fe565b5b835b8181101561029857806102848882610224565b845260208401935050602081019050610271565b5050509392505050565b600082601f8301126102b7576102b6610141565b5b81356102c7848260208601610239565b91505092915050565b6000819050919050565b6102e3816102d0565b81146102ee57600080fd5b50565b600081359050610300816102da565b92915050565b600080600080608085870312156103205761031f610137565b5b600085013567ffffffffffffffff81111561033e5761033d61013c565b5b61034a878288016102a2565b945050602061035b87828801610224565b935050604061036c87828801610224565b925050606061037d878288016102f1565b91505092959194509250565b60008115159050919050565b61039e81610389565b82525050565b60006020820190506103b96000830184610395565b92915050565b7f4e487b7100000000000000000000000000000000000000000000000000000000600052603260045260246000fd5b7f4e487b7100000000000000000000000000000000000000000000000000000000600052601260045260246000fd5b6000610428826102d0565b9150610433836102d0565b925082610443576104426103ee565b5b828206905092915050565b6000819050919050565b61046961046482610203565b61044e565b82525050565b600061047b8285610458565b60208201915061048b8284610458565b6020820191508190509392505050565b60006104a6826102d0565b91506104b1836102d0565b9250826104c1576104c06103ee565b5b82820490509291505056fea2646970667358221220d8e516208fea5fea7088ceabf75b9bd936f77b3b009de4bad4a317a018b0de3c64736f6c63430008180033",
  "linkReferences": {},
  "deployedLinkReferences": {}
}