{
  "_format": "hh-sol-artifact-1",
  "contractName": "Airdrop",
  "sourceName": "contracts/Airdrop.sol",
  "abi": [
    {
      "inputs": [
        {
          "internalType": "address",
          "name": "_token",
          "type": "address"
        }
      ],
      "stateMutability": "nonpayable",
      "type": "constructor"
    },
    {
      "inputs": [
        {
          "internalType": "address",
          "name": "owner",
          "type": "address"
        }
      ],
      "name": "OwnableInvalidOwner",
      "type": "error"
    },
    {
      "inputs": [
        {
          "internalType": "address",
          "name": "account",
          "type": "address"
        }
      ],
      "name": "OwnableUnauthorizedAccount",
      "type": "error"
    },
    {
      "anonymous": false,
      "inputs": [
        {
          "indexed": true,
          "internalType": "address",
          "name": "manager",
          "type": "address"
        },
        {
          "indexed": false,
          "internalType": "uint256",
          "name": "totalAmount",
          "type": "uint256"
        },
        {
          "indexed": false,
          "internalType": "uint256",
          "name": "numBeneficiaries",
          "type": "uint256"
        }
      ],
      "name": "GroupCreated",
      "type": "event"
    },
    {
      "anonymous": false,
      "inputs": [
        {
          "indexed": true,
          "internalType": "address",
          "name": "previousOwner",
          "type": "address"
        },
        {
          "indexed": true,
          "internalType": "address",
          "name": "newOwner",
          "type": "address"
        }
      ],
      "name": "OwnershipTransferred",
      "type": "event"
    },
    {
      "anonymous": false,
      "inputs": [
        {
          "indexed": true,
          "internalType": "bytes32",
          "name": "beneficiary",
          "type": "bytes32"
        },
        {
          "indexed": false,
          "internalType": "uint256",
          "name": "amount",
          "type": "uint256"
        }
      ],
      "name": "VoucherCreated",
      "type": "event"
    },
    {
      "inputs": [],
      "name": "amountPerBeneficiary",
      "outputs": [
        {
          "internalType": "uint256",
          "name": "",
          "type": "uint256"
        }
      ],
      "stateMutability": "view",
      "type": "function"
    },
    {
      "inputs": [
        {
          "internalType": "address",
          "name": "",
          "type": "address"
        }
      ],
      "name": "balances",
      "outputs": [
        {
          "internalType": "uint256",
          "name": "",
          "type": "uint256"
        }
      ],
      "stateMutability": "view",
      "type": "function"
    },
    {
      "inputs": [
        {
          "internalType": "address",
          "name": "",
          "type": "address"
        }
      ],
      "name": "beneficiaries",
      "outputs": [
        {
          "internalType": "bool",
          "name": "",
          "type": "bool"
        }
      ],
      "stateMutability": "view",
      "type": "function"
    },
    {
      "inputs": [
        {
          "internalType": "uint256",
          "name": "_totalAmount",
          "type": "uint256"
        },
        {
          "internalType": "address[]",
          "name": "_beneficiaries",
          "type": "address[]"
        }
      ],
      "name": "createGroup",
      "outputs": [],
      "stateMutability": "nonpayable",
      "type": "function"
    },
    {
      "inputs": [
        {
          "internalType": "address",
          "name": "_beneficiary",
          "type": "address"
        }
      ],
      "name": "getBalance",
      "outputs": [
        {
          "internalType": "uint256",
          "name": "",
          "type": "uint256"
        }
      ],
      "stateMutability": "view",
      "type": "function"
    },
    {
      "inputs": [],
      "name": "getTotalAmount",
      "outputs": [
        {
          "internalType": "uint256",
          "name": "",
          "type": "uint256"
        }
      ],
      "stateMutability": "view",
      "type": "function"
    },
    {
      "inputs": [
        {
          "internalType": "uint256",
          "name": "_voucher",
          "type": "uint256"
        }
      ],
      "name": "getVoucherAmount",
      "outputs": [
        {
          "internalType": "uint256",
          "name": "",
          "type": "uint256"
        }
      ],
      "stateMutability": "view",
      "type": "function"
    },
    {
      "inputs": [
        {
          "internalType": "uint256",
          "name": "",
          "type": "uint256"
        }
      ],
      "name": "isVoucherAvailable",
      "outputs": [
        {
          "internalType": "bool",
          "name": "",
          "type": "bool"
        }
      ],
      "stateMutability": "view",
      "type": "function"
    },
    {
      "inputs": [
        {
          "internalType": "address",
          "name": "_beneficiary",
          "type": "address"
        }
      ],
      "name": "joinGroup",
      "outputs": [],
      "stateMutability": "nonpayable",
      "type": "function"
    },
    {
      "inputs": [],
      "name": "owner",
      "outputs": [
        {
          "internalType": "address",
          "name": "",
          "type": "address"
        }
      ],
      "stateMutability": "view",
      "type": "function"
    },
    {
      "inputs": [
        {
          "internalType": "address",
          "name": "_beneficiary",
          "type": "address"
        },
        {
          "internalType": "uint256",
          "name": "_voucher",
          "type": "uint256"
        },
        {
          "internalType": "uint256",
          "name": "_amount",
          "type": "uint256"
        }
      ],
      "name": "registerVoucher",
      "outputs": [],
      "stateMutability": "nonpayable",
      "type": "function"
    },
    {
      "inputs": [],
      "name": "renounceOwnership",
      "outputs": [],
      "stateMutability": "nonpayable",
      "type": "function"
    },
    {
      "inputs": [
        {
          "internalType": "address",
          "name": "newOwner",
          "type": "address"
        }
      ],
      "name": "transferOwnership",
      "outputs": [],
      "stateMutability": "nonpayable",
      "type": "function"
    },
    {
      "inputs": [
        {
          "internalType": "uint256",
          "name": "",
          "type": "uint256"
        }
      ],
      "name": "vouchers",
      "outputs": [
        {
          "internalType": "uint256",
          "name": "",
          "type": "uint256"
        }
      ],
      "stateMutability": "view",
      "type": "function"
    },
    {
      "inputs": [
        {
          "internalType": "address",
          "name": "_thirdParty",
          "type": "address"
        },
        {
          "internalType": "uint256",
          "name": "_voucher",
          "type": "uint256"
        }
      ],
      "name": "withdraw",
      "outputs": [],
      "stateMutability": "nonpayable",
      "type": "function"
    }
  ],
  "bytecode": "0x608060405260006007553480156200001657600080fd5b50604051620017423803806200174283398181016040528101906200003c91906200023a565b33600073ffffffffffffffffffffffffffffffffffffffff168173ffffffffffffffffffffffffffffffffffffffff1603620000b25760006040517f1e4fbdf7000000000000000000000000000000000000000000000000000000008152600401620000a991906200027d565b60405180910390fd5b620000c3816200010c60201b60201c565b5080600160006101000a81548173ffffffffffffffffffffffffffffffffffffffff021916908373ffffffffffffffffffffffffffffffffffffffff160217905550506200029a565b60008060009054906101000a900473ffffffffffffffffffffffffffffffffffffffff169050816000806101000a81548173ffffffffffffffffffffffffffffffffffffffff021916908373ffffffffffffffffffffffffffffffffffffffff1602179055508173ffffffffffffffffffffffffffffffffffffffff168173ffffffffffffffffffffffffffffffffffffffff167f8be0079c531659141344cd1fd0a4f28419497f9722a3daafe3b4186f6b6457e060405160405180910390a35050565b600080fd5b600073ffffffffffffffffffffffffffffffffffffffff82169050919050565b60006200020282620001d5565b9050919050565b6200021481620001f5565b81146200022057600080fd5b50565b600081519050620002348162000209565b92915050565b600060208284031215620002535762000252620001d0565b5b6000620002638482850162000223565b91505092915050565b6200027781620001f5565b82525050565b60006020820190506200029460008301846200026c565b92915050565b61149880620002aa6000396000f3fe608060405234801561001057600080fd5b50600436106100f55760003560e01c80638da5cb5b11610097578063cfb64afe11610066578063cfb64afe14610284578063f2fde38b146102a2578063f3fef3a3146102be578063f8b2cb4f146102da576100f5565b80638da5cb5b146101fe5780639a824c4f1461021c578063b2406c2f14610238578063ba561bd214610254576100f5565b80633e97b43f116100d35780633e97b43f1461018a57806364790ae6146101ba57806365ac4341146101d6578063715018a6146101f4576100f5565b806301567739146100fa578063040112eb1461012a57806327e235e31461015a575b600080fd5b610114600480360381019061010f9190610d02565b61030a565b6040516101219190610d4a565b60405180910390f35b610144600480360381019061013f9190610d9b565b61032a565b6040516101519190610dd7565b60405180910390f35b610174600480360381019061016f9190610d02565b61034f565b6040516101819190610dd7565b60405180910390f35b6101a4600480360381019061019f9190610d9b565b610367565b6040516101b19190610dd7565b60405180910390f35b6101d460048036038101906101cf9190610f4b565b61037f565b005b6101de6104ae565b6040516101eb9190610dd7565b60405180910390f35b6101fc6104c0565b005b6102066104d4565b6040516102139190610fb6565b60405180910390f35b61023660048036038101906102319190610d02565b6104fd565b005b610252600480360381019061024d9190610fd1565b610643565b005b61026e60048036038101906102699190610d9b565b6107ff565b60405161027b9190610d4a565b60405180910390f35b61028c61081f565b6040516102999190610dd7565b60405180910390f35b6102bc60048036038101906102b79190610d02565b610825565b005b6102d860048036038101906102d39190611024565b6108ab565b005b6102f460048036038101906102ef9190610d02565b610a4c565b6040516103019190610dd7565b60405180910390f35b60086020528060005260406000206000915054906101000a900460ff1681565b6000610334610a9d565b600a6000838152602001908152602001600020549050919050565b60096020528060005260406000206000915090505481565b600a6020528060005260406000206000915090505481565b610387610a9d565b8160038190555080516004819055506004546003546103a691906110c2565b6005819055506103b581610b24565b600160009054906101000a900473ffffffffffffffffffffffffffffffffffffffff1673ffffffffffffffffffffffffffffffffffffffff1663a9059cbb306003546040518363ffffffff1660e01b81526004016104149291906110f3565b6020604051808303816000875af1158015610433573d6000803e3d6000fd5b505050506040513d601f19601f820116820180604052508101906104579190611148565b503373ffffffffffffffffffffffffffffffffffffffff167fb9bed5e9893e4c14e02d675e2d4d7f758b6de9caae770ac8e6de20e17f1a84a8836004546040516104a2929190611175565b60405180910390a25050565b60006104b8610a9d565b600354905090565b6104c8610a9d565b6104d26000610bc4565b565b60008060009054906101000a900473ffffffffffffffffffffffffffffffffffffffff16905090565b60001515600860008373ffffffffffffffffffffffffffffffffffffffff1673ffffffffffffffffffffffffffffffffffffffff16815260200190815260200160002060009054906101000a900460ff16151514610590576040517f08c379a0000000000000000000000000000000000000000000000000000000008152600401610587906111fb565b60405180910390fd5b6001600860008373ffffffffffffffffffffffffffffffffffffffff1673ffffffffffffffffffffffffffffffffffffffff16815260200190815260200160002060006101000a81548160ff021916908315150217905550600554600960008373ffffffffffffffffffffffffffffffffffffffff1673ffffffffffffffffffffffffffffffffffffffff1681526020019081526020016000206000828254610639919061121b565b9250508190555050565b61064b610a9d565b60011515600860008573ffffffffffffffffffffffffffffffffffffffff1673ffffffffffffffffffffffffffffffffffffffff16815260200190815260200160002060009054906101000a900460ff161515146106de576040517f08c379a00000000000000000000000000000000000000000000000000000000081526004016106d59061129b565b60405180910390fd5b80600960008573ffffffffffffffffffffffffffffffffffffffff1673ffffffffffffffffffffffffffffffffffffffff168152602001908152602001600020541015610760576040517f08c379a000000000000000000000000000000000000000000000000000000000815260040161075790611307565b60405180910390fd5b80600960008573ffffffffffffffffffffffffffffffffffffffff1673ffffffffffffffffffffffffffffffffffffffff16815260200190815260200160002060008282546107af9190611327565b9250508190555080600a6000848152602001908152602001600020819055506001600b600084815260200190815260200160002060006101000a81548160ff021916908315150217905550505050565b600b6020528060005260406000206000915054906101000a900460ff1681565b60055481565b61082d610a9d565b600073ffffffffffffffffffffffffffffffffffffffff168173ffffffffffffffffffffffffffffffffffffffff160361089f5760006040517f1e4fbdf70000000000000000000000000000000000000000000000000000000081526004016108969190610fb6565b60405180910390fd5b6108a881610bc4565b50565b60001515600b600083815260200190815260200160002060009054906101000a900460ff16151503610912576040517f08c379a0000000000000000000000000000000000000000000000000000000008152600401610909906113a7565b60405180910390fd5b6000600a60008381526020019081526020016000205403610968576040517f08c379a000000000000000000000000000000000000000000000000000000000815260040161095f90611413565b60405180910390fd5b600160009054906101000a900473ffffffffffffffffffffffffffffffffffffffff1673ffffffffffffffffffffffffffffffffffffffff1663a9059cbb83600a6000858152602001908152602001600020546040518363ffffffff1660e01b81526004016109d89291906110f3565b6020604051808303816000875af11580156109f7573d6000803e3d6000fd5b505050506040513d601f19601f82011682018060405250810190610a1b9190611148565b506000600b600083815260200190815260200160002060006101000a81548160ff0219169083151502179055505050565b6000610a56610a9d565b600960008373ffffffffffffffffffffffffffffffffffffffff1673ffffffffffffffffffffffffffffffffffffffff168152602001908152602001600020549050919050565b610aa5610c88565b73ffffffffffffffffffffffffffffffffffffffff16610ac36104d4565b73ffffffffffffffffffffffffffffffffffffffff1614610b2257610ae6610c88565b6040517f118cdaa7000000000000000000000000000000000000000000000000000000008152600401610b199190610fb6565b60405180910390fd5b565b60005b8151811015610bc057610b53828281518110610b4657610b45611433565b5b60200260200101516104fd565b60055460096000848481518110610b6d57610b6c611433565b5b602002602001015173ffffffffffffffffffffffffffffffffffffffff1673ffffffffffffffffffffffffffffffffffffffff168152602001908152602001600020819055508080600101915050610b27565b5050565b60008060009054906101000a900473ffffffffffffffffffffffffffffffffffffffff169050816000806101000a81548173ffffffffffffffffffffffffffffffffffffffff021916908373ffffffffffffffffffffffffffffffffffffffff1602179055508173ffffffffffffffffffffffffffffffffffffffff168173ffffffffffffffffffffffffffffffffffffffff167f8be0079c531659141344cd1fd0a4f28419497f9722a3daafe3b4186f6b6457e060405160405180910390a35050565b600033905090565b6000604051905090565b600080fd5b600080fd5b600073ffffffffffffffffffffffffffffffffffffffff82169050919050565b6000610ccf82610ca4565b9050919050565b610cdf81610cc4565b8114610cea57600080fd5b50565b600081359050610cfc81610cd6565b92915050565b600060208284031215610d1857610d17610c9a565b5b6000610d2684828501610ced565b91505092915050565b60008115159050919050565b610d4481610d2f565b82525050565b6000602082019050610d5f6000830184610d3b565b92915050565b6000819050919050565b610d7881610d65565b8114610d8357600080fd5b50565b600081359050610d9581610d6f565b92915050565b600060208284031215610db157610db0610c9a565b5b6000610dbf84828501610d86565b91505092915050565b610dd181610d65565b82525050565b6000602082019050610dec6000830184610dc8565b92915050565b600080fd5b6000601f19601f8301169050919050565b7f4e487b7100000000000000000000000000000000000000000000000000000000600052604160045260246000fd5b610e4082610df7565b810181811067ffffffffffffffff82111715610e5f57610e5e610e08565b5b80604052505050565b6000610e72610c90565b9050610e7e8282610e37565b919050565b600067ffffffffffffffff821115610e9e57610e9d610e08565b5b602082029050602081019050919050565b600080fd5b6000610ec7610ec284610e83565b610e68565b90508083825260208201905060208402830185811115610eea57610ee9610eaf565b5b835b81811015610f135780610eff8882610ced565b845260208401935050602081019050610eec565b5050509392505050565b600082601f830112610f3257610f31610df2565b5b8135610f42848260208601610eb4565b91505092915050565b60008060408385031215610f6257610f61610c9a565b5b6000610f7085828601610d86565b925050602083013567ffffffffffffffff811115610f9157610f90610c9f565b5b610f9d85828601610f1d565b9150509250929050565b610fb081610cc4565b82525050565b6000602082019050610fcb6000830184610fa7565b92915050565b600080600060608486031215610fea57610fe9610c9a565b5b6000610ff886828701610ced565b935050602061100986828701610d86565b925050604061101a86828701610d86565b9150509250925092565b6000806040838503121561103b5761103a610c9a565b5b600061104985828601610ced565b925050602061105a85828601610d86565b9150509250929050565b7f4e487b7100000000000000000000000000000000000000000000000000000000600052601260045260246000fd5b7f4e487b7100000000000000000000000000000000000000000000000000000000600052601160045260246000fd5b60006110cd82610d65565b91506110d883610d65565b9250826110e8576110e7611064565b5b828204905092915050565b60006040820190506111086000830185610fa7565b6111156020830184610dc8565b9392505050565b61112581610d2f565b811461113057600080fd5b50565b6000815190506111428161111c565b92915050565b60006020828403121561115e5761115d610c9a565b5b600061116c84828501611133565b91505092915050565b600060408201905061118a6000830185610dc8565b6111976020830184610dc8565b9392505050565b600082825260208201905092915050565b7f416c726561647920612062656e65666963696172790000000000000000000000600082015250565b60006111e560158361119e565b91506111f0826111af565b602082019050919050565b60006020820190508181036000830152611214816111d8565b9050919050565b600061122682610d65565b915061123183610d65565b925082820190508082111561124957611248611093565b5b92915050565b7f4e6f7420612062656e6566696369617279000000000000000000000000000000600082015250565b600061128560118361119e565b91506112908261124f565b602082019050919050565b600060208201905081810360008301526112b481611278565b9050919050565b7f496e73756666696369656e742062616c616e6365000000000000000000000000600082015250565b60006112f160148361119e565b91506112fc826112bb565b602082019050919050565b60006020820190508181036000830152611320816112e4565b9050919050565b600061133282610d65565b915061133d83610d65565b925082820390508181111561135557611354611093565b5b92915050565b7f496e76616c696420766f75636865720000000000000000000000000000000000600082015250565b6000611391600f8361119e565b915061139c8261135b565b602082019050919050565b600060208201905081810360008301526113c081611384565b9050919050565b7f496e76616c696420766f756368657220616d6f756e7400000000000000000000600082015250565b60006113fd60168361119e565b9150611408826113c7565b602082019050919050565b6000602082019050818103600083015261142c816113f0565b9050919050565b7f4e487b7100000000000000000000000000000000000000000000000000000000600052603260045260246000fdfea26469706673582212204ab3529520afe5491cc855e3c6e02fc1a77e45e1526c0dc98ff9239e9bc4349964736f6c63430008180033",
  "linkReferences": {},
  "deployedLinkReferences": {}
}