{
  "_format": "hh-sol-artifact-1",
  "contractName": "Airdrop",
  "sourceName": "contracts/Airdrop.sol",
  "abi": [
    {
      "inputs": [
        {
          "internalType": "address",
          "name": "_token",
          "type": "address"
        }
      ],
      "stateMutability": "nonpayable",
      "type": "constructor"
    },
    {
      "inputs": [
        {
          "internalType": "address",
          "name": "owner",
          "type": "address"
        }
      ],
      "name": "OwnableInvalidOwner",
      "type": "error"
    },
    {
      "inputs": [
        {
          "internalType": "address",
          "name": "account",
          "type": "address"
        }
      ],
      "name": "OwnableUnauthorizedAccount",
      "type": "error"
    },
    {
      "anonymous": false,
      "inputs": [
        {
          "indexed": true,
          "internalType": "address",
          "name": "manager",
          "type": "address"
        },
        {
          "indexed": false,
          "internalType": "uint256",
          "name": "totalAmount",
          "type": "uint256"
        },
        {
          "indexed": false,
          "internalType": "uint256",
          "name": "numBeneficiaries",
          "type": "uint256"
        }
      ],
      "name": "GroupCreated",
      "type": "event"
    },
    {
      "anonymous": false,
      "inputs": [
        {
          "indexed": true,
          "internalType": "address",
          "name": "previousOwner",
          "type": "address"
        },
        {
          "indexed": true,
          "internalType": "address",
          "name": "newOwner",
          "type": "address"
        }
      ],
      "name": "OwnershipTransferred",
      "type": "event"
    },
    {
      "anonymous": false,
      "inputs": [
        {
          "indexed": true,
          "internalType": "bytes32",
          "name": "beneficiary",
          "type": "bytes32"
        },
        {
          "indexed": false,
          "internalType": "uint256",
          "name": "amount",
          "type": "uint256"
        }
      ],
      "name": "VoucherCreated",
      "type": "event"
    },
    {
      "anonymous": false,
      "inputs": [
        {
          "indexed": true,
          "internalType": "address",
          "name": "thirdParty",
          "type": "address"
        },
        {
          "indexed": false,
          "internalType": "uint256",
          "name": "amount",
          "type": "uint256"
        }
      ],
      "name": "Withdrawal",
      "type": "event"
    },
    {
      "inputs": [],
      "name": "amountPerBeneficiary",
      "outputs": [
        {
          "internalType": "uint256",
          "name": "",
          "type": "uint256"
        }
      ],
      "stateMutability": "view",
      "type": "function"
    },
    {
      "inputs": [
        {
          "internalType": "bytes32",
          "name": "",
          "type": "bytes32"
        }
      ],
      "name": "balances",
      "outputs": [
        {
          "internalType": "uint256",
          "name": "",
          "type": "uint256"
        }
      ],
      "stateMutability": "view",
      "type": "function"
    },
    {
      "inputs": [
        {
          "internalType": "bytes32",
          "name": "",
          "type": "bytes32"
        }
      ],
      "name": "beneficiaries",
      "outputs": [
        {
          "internalType": "bool",
          "name": "",
          "type": "bool"
        }
      ],
      "stateMutability": "view",
      "type": "function"
    },
    {
      "inputs": [
        {
          "internalType": "uint256",
          "name": "_totalAmount",
          "type": "uint256"
        },
        {
          "internalType": "address[]",
          "name": "_beneficiaries",
          "type": "address[]"
        }
      ],
      "name": "createGroup",
      "outputs": [],
      "stateMutability": "nonpayable",
      "type": "function"
    },
    {
      "inputs": [
        {
          "internalType": "bytes32",
          "name": "_beneficiary",
          "type": "bytes32"
        },
        {
          "internalType": "uint256",
          "name": "_amount",
          "type": "uint256"
        }
      ],
      "name": "createVoucher",
      "outputs": [
        {
          "internalType": "bool",
          "name": "",
          "type": "bool"
        }
      ],
      "stateMutability": "nonpayable",
      "type": "function"
    },
    {
      "inputs": [
        {
          "internalType": "bytes32",
          "name": "_beneficiary",
          "type": "bytes32"
        }
      ],
      "name": "getBalance",
      "outputs": [
        {
          "internalType": "uint256",
          "name": "",
          "type": "uint256"
        }
      ],
      "stateMutability": "view",
      "type": "function"
    },
    {
      "inputs": [],
      "name": "getBeneficiaryHashes",
      "outputs": [
        {
          "internalType": "bytes32[]",
          "name": "",
          "type": "bytes32[]"
        }
      ],
      "stateMutability": "view",
      "type": "function"
    },
    {
      "inputs": [],
      "name": "getTotalAmount",
      "outputs": [
        {
          "internalType": "uint256",
          "name": "",
          "type": "uint256"
        }
      ],
      "stateMutability": "view",
      "type": "function"
    },
    {
      "inputs": [
        {
          "internalType": "bytes32",
          "name": "_beneficiary",
          "type": "bytes32"
        }
      ],
      "name": "joinGroup",
      "outputs": [],
      "stateMutability": "nonpayable",
      "type": "function"
    },
    {
      "inputs": [],
      "name": "owner",
      "outputs": [
        {
          "internalType": "address",
          "name": "",
          "type": "address"
        }
      ],
      "stateMutability": "view",
      "type": "function"
    },
    {
      "inputs": [],
      "name": "renounceOwnership",
      "outputs": [],
      "stateMutability": "nonpayable",
      "type": "function"
    },
    {
      "inputs": [
        {
          "internalType": "address",
          "name": "newOwner",
          "type": "address"
        }
      ],
      "name": "transferOwnership",
      "outputs": [],
      "stateMutability": "nonpayable",
      "type": "function"
    },
    {
      "inputs": [
        {
          "internalType": "address",
          "name": "_thirdParty",
          "type": "address"
        },
        {
          "internalType": "uint256",
          "name": "_amount",
          "type": "uint256"
        }
      ],
      "name": "withdraw",
      "outputs": [],
      "stateMutability": "nonpayable",
      "type": "function"
    }
  ],
  "bytecode": "0x60806040523480156200001157600080fd5b506040516200288638038062002886833981810160405281019062000037919062000235565b33600073ffffffffffffffffffffffffffffffffffffffff168173ffffffffffffffffffffffffffffffffffffffff1603620000ad5760006040517f1e4fbdf7000000000000000000000000000000000000000000000000000000008152600401620000a4919062000278565b60405180910390fd5b620000be816200010760201b60201c565b5080600160006101000a81548173ffffffffffffffffffffffffffffffffffffffff021916908373ffffffffffffffffffffffffffffffffffffffff1602179055505062000295565b60008060009054906101000a900473ffffffffffffffffffffffffffffffffffffffff169050816000806101000a81548173ffffffffffffffffffffffffffffffffffffffff021916908373ffffffffffffffffffffffffffffffffffffffff1602179055508173ffffffffffffffffffffffffffffffffffffffff168173ffffffffffffffffffffffffffffffffffffffff167f8be0079c531659141344cd1fd0a4f28419497f9722a3daafe3b4186f6b6457e060405160405180910390a35050565b600080fd5b600073ffffffffffffffffffffffffffffffffffffffff82169050919050565b6000620001fd82620001d0565b9050919050565b6200020f81620001f0565b81146200021b57600080fd5b50565b6000815190506200022f8162000204565b92915050565b6000602082840312156200024e576200024d620001cb565b5b60006200025e848285016200021e565b91505092915050565b6200027281620001f0565b82525050565b60006020820190506200028f600083018462000267565b92915050565b6125e180620002a56000396000f3fe60806040523480156200001157600080fd5b5060043610620000e25760003560e01c80638da5cb5b1162000099578063cfb64afe116200006f578063cfb64afe1462000251578063f2fde38b1462000273578063f3fef3a31462000293578063fb0135d114620002b357620000e2565b80638da5cb5b14620001c35780638e73946114620001e5578063a6f936ac146200021b57620000e2565b806339cd53ee14620000e757806343923fdf146200011d57806364790ae6146200013f57806365ac4341146200015f578063715018a614620001815780638909aa3f146200018d575b600080fd5b620001056004803603810190620000ff919062000c0a565b620002d3565b60405162000114919062000c59565b60405180910390f35b62000127620002f3565b60405162000136919062000d44565b60405180910390f35b6200015d600480360381019062000157919062000f7d565b6200039d565b005b62000169620004d9565b60405162000178919062000ff4565b60405180910390f35b6200018b620004ed565b005b620001ab6004803603810190620001a5919062000c0a565b62000505565b604051620001ba919062000ff4565b60405180910390f35b620001cd6200051d565b604051620001dc919062001022565b60405180910390f35b620002036004803603810190620001fd919062000c0a565b62000546565b60405162000212919062000ff4565b60405180910390f35b6200023960048036038101906200023391906200103f565b6200056d565b60405162000248919062000c59565b60405180910390f35b6200025b62000668565b6040516200026a919062000ff4565b60405180910390f35b6200029160048036038101906200028b919062001086565b6200066e565b005b620002b16004803603810190620002ab9190620010b8565b620006fb565b005b620002d16004803603810190620002cb919062000c0a565b620007f5565b005b60076020528060005260406000206000915054906101000a900460ff1681565b6060620002ff620008bc565b600260009054906101000a900473ffffffffffffffffffffffffffffffffffffffff1673ffffffffffffffffffffffffffffffffffffffff1663174f6e746040518163ffffffff1660e01b8152600401600060405180830381865afa1580156200036d573d6000803e3d6000fd5b505050506040513d6000823e3d601f19601f82011682018060405250810190620003989190620011ec565b905090565b620003a7620008bc565b816003819055508051600481905550600454600354620003c891906200129b565b600581905550620003d9816200094c565b600160009054906101000a900473ffffffffffffffffffffffffffffffffffffffff1673ffffffffffffffffffffffffffffffffffffffff1663a9059cbb306003546040518363ffffffff1660e01b81526004016200043a929190620012d3565b6020604051808303816000875af11580156200045a573d6000803e3d6000fd5b505050506040513d601f19601f8201168201806040525081019062000480919062001331565b503373ffffffffffffffffffffffffffffffffffffffff167fb9bed5e9893e4c14e02d675e2d4d7f758b6de9caae770ac8e6de20e17f1a84a883600454604051620004cd92919062001363565b60405180910390a25050565b6000620004e5620008bc565b600354905090565b620004f7620008bc565b62000503600062000ae1565b565b60086020528060005260406000206000915090505481565b60008060009054906101000a900473ffffffffffffffffffffffffffffffffffffffff16905090565b600062000552620008bc565b60086000838152602001908152602001600020549050919050565b6000600115156007600085815260200190815260200160002060009054906101000a900460ff16151514620005d9576040517f08c379a0000000000000000000000000000000000000000000000000000000008152600401620005d090620013f1565b60405180910390fd5b816008600085815260200190815260200160002054101562000632576040517f08c379a0000000000000000000000000000000000000000000000000000000008152600401620006299062001463565b60405180910390fd5b8160086000858152602001908152602001600020600082825462000657919062001485565b925050819055506001905092915050565b60055481565b62000678620008bc565b600073ffffffffffffffffffffffffffffffffffffffff168173ffffffffffffffffffffffffffffffffffffffff1603620006ed5760006040517f1e4fbdf7000000000000000000000000000000000000000000000000000000008152600401620006e4919062001022565b60405180910390fd5b620006f88162000ae1565b50565b600160009054906101000a900473ffffffffffffffffffffffffffffffffffffffff1673ffffffffffffffffffffffffffffffffffffffff1663a9059cbb83836040518363ffffffff1660e01b81526004016200075a929190620012d3565b6020604051808303816000875af11580156200077a573d6000803e3d6000fd5b505050506040513d601f19601f82011682018060405250810190620007a0919062001331565b508173ffffffffffffffffffffffffffffffffffffffff167f7fcf532c15f0a6db0bd6d0e038bea71d30d808c7d98cb3bf7268a95bf5081b6582604051620007e9919062000ff4565b60405180910390a25050565b600015156007600083815260200190815260200160002060009054906101000a900460ff161515146200085f576040517f08c379a0000000000000000000000000000000000000000000000000000000008152600401620008569062001510565b60405180910390fd5b60016007600083815260200190815260200160002060006101000a81548160ff021916908315150217905550600554600860008381526020019081526020016000206000828254620008b2919062001532565b9250508190555050565b620008c662000ba5565b73ffffffffffffffffffffffffffffffffffffffff16620008e66200051d565b73ffffffffffffffffffffffffffffffffffffffff16146200094a576200090c62000ba5565b6040517f118cdaa700000000000000000000000000000000000000000000000000000000815260040162000941919062001022565b60405180910390fd5b565b806040516200095b9062000bad565b6200096791906200163b565b604051809103906000f08015801562000984573d6000803e3d6000fd5b50600260006101000a81548173ffffffffffffffffffffffffffffffffffffffff021916908373ffffffffffffffffffffffffffffffffffffffff1602179055506000600260009054906101000a900473ffffffffffffffffffffffffffffffffffffffff1673ffffffffffffffffffffffffffffffffffffffff1663174f6e746040518163ffffffff1660e01b8152600401600060405180830381865afa15801562000a35573d6000803e3d6000fd5b505050506040513d6000823e3d601f19601f8201168201806040525081019062000a609190620011ec565b905060005b815181101562000adc5762000a9782828151811062000a895762000a886200165f565b5b6020026020010151620007f5565b6005546008600084848151811062000ab45762000ab36200165f565b5b6020026020010151815260200190815260200160002081905550808060010191505062000a65565b505050565b60008060009054906101000a900473ffffffffffffffffffffffffffffffffffffffff169050816000806101000a81548173ffffffffffffffffffffffffffffffffffffffff021916908373ffffffffffffffffffffffffffffffffffffffff1602179055508173ffffffffffffffffffffffffffffffffffffffff168173ffffffffffffffffffffffffffffffffffffffff167f8be0079c531659141344cd1fd0a4f28419497f9722a3daafe3b4186f6b6457e060405160405180910390a35050565b600033905090565b610f1d806200168f83390190565b6000604051905090565b600080fd5b600080fd5b6000819050919050565b62000be48162000bcf565b811462000bf057600080fd5b50565b60008135905062000c048162000bd9565b92915050565b60006020828403121562000c235762000c2262000bc5565b5b600062000c338482850162000bf3565b91505092915050565b60008115159050919050565b62000c538162000c3c565b82525050565b600060208201905062000c70600083018462000c48565b92915050565b600081519050919050565b600082825260208201905092915050565b6000819050602082019050919050565b62000cad8162000bcf565b82525050565b600062000cc1838362000ca2565b60208301905092915050565b6000602082019050919050565b600062000ce78262000c76565b62000cf3818562000c81565b935062000d008362000c92565b8060005b8381101562000d3757815162000d1b888262000cb3565b975062000d288362000ccd565b92505060018101905062000d04565b5085935050505092915050565b6000602082019050818103600083015262000d60818462000cda565b905092915050565b6000819050919050565b62000d7d8162000d68565b811462000d8957600080fd5b50565b60008135905062000d9d8162000d72565b92915050565b600080fd5b6000601f19601f8301169050919050565b7f4e487b7100000000000000000000000000000000000000000000000000000000600052604160045260246000fd5b62000df38262000da8565b810181811067ffffffffffffffff8211171562000e155762000e1462000db9565b5b80604052505050565b600062000e2a62000bbb565b905062000e38828262000de8565b919050565b600067ffffffffffffffff82111562000e5b5762000e5a62000db9565b5b602082029050602081019050919050565b600080fd5b600073ffffffffffffffffffffffffffffffffffffffff82169050919050565b600062000e9e8262000e71565b9050919050565b62000eb08162000e91565b811462000ebc57600080fd5b50565b60008135905062000ed08162000ea5565b92915050565b600062000eed62000ee78462000e3d565b62000e1e565b9050808382526020820190506020840283018581111562000f135762000f1262000e6c565b5b835b8181101562000f40578062000f2b888262000ebf565b84526020840193505060208101905062000f15565b5050509392505050565b600082601f83011262000f625762000f6162000da3565b5b813562000f7484826020860162000ed6565b91505092915050565b6000806040838503121562000f975762000f9662000bc5565b5b600062000fa78582860162000d8c565b925050602083013567ffffffffffffffff81111562000fcb5762000fca62000bca565b5b62000fd98582860162000f4a565b9150509250929050565b62000fee8162000d68565b82525050565b60006020820190506200100b600083018462000fe3565b92915050565b6200101c8162000e91565b82525050565b600060208201905062001039600083018462001011565b92915050565b6000806040838503121562001059576200105862000bc5565b5b6000620010698582860162000bf3565b92505060206200107c8582860162000d8c565b9150509250929050565b6000602082840312156200109f576200109e62000bc5565b5b6000620010af8482850162000ebf565b91505092915050565b60008060408385031215620010d257620010d162000bc5565b5b6000620010e28582860162000ebf565b9250506020620010f58582860162000d8c565b9150509250929050565b600067ffffffffffffffff8211156200111d576200111c62000db9565b5b602082029050602081019050919050565b6000815190506200113f8162000bd9565b92915050565b60006200115c6200115684620010ff565b62000e1e565b9050808382526020820190506020840283018581111562001182576200118162000e6c565b5b835b81811015620011af57806200119a88826200112e565b84526020840193505060208101905062001184565b5050509392505050565b600082601f830112620011d157620011d062000da3565b5b8151620011e384826020860162001145565b91505092915050565b60006020828403121562001205576200120462000bc5565b5b600082015167ffffffffffffffff81111562001226576200122562000bca565b5b6200123484828501620011b9565b91505092915050565b7f4e487b7100000000000000000000000000000000000000000000000000000000600052601260045260246000fd5b7f4e487b7100000000000000000000000000000000000000000000000000000000600052601160045260246000fd5b6000620012a88262000d68565b9150620012b58362000d68565b925082620012c857620012c76200123d565b5b828204905092915050565b6000604082019050620012ea600083018562001011565b620012f9602083018462000fe3565b9392505050565b6200130b8162000c3c565b81146200131757600080fd5b50565b6000815190506200132b8162001300565b92915050565b6000602082840312156200134a576200134962000bc5565b5b60006200135a848285016200131a565b91505092915050565b60006040820190506200137a600083018562000fe3565b62001389602083018462000fe3565b9392505050565b600082825260208201905092915050565b7f4e6f7420612062656e6566696369617279000000000000000000000000000000600082015250565b6000620013d960118362001390565b9150620013e682620013a1565b602082019050919050565b600060208201905081810360008301526200140c81620013ca565b9050919050565b7f496e73756666696369656e742062616c616e6365000000000000000000000000600082015250565b60006200144b60148362001390565b9150620014588262001413565b602082019050919050565b600060208201905081810360008301526200147e816200143c565b9050919050565b6000620014928262000d68565b91506200149f8362000d68565b9250828203905081811115620014ba57620014b96200126c565b5b92915050565b7f416c726561647920612062656e65666963696172790000000000000000000000600082015250565b6000620014f860158362001390565b91506200150582620014c0565b602082019050919050565b600060208201905081810360008301526200152b81620014e9565b9050919050565b60006200153f8262000d68565b91506200154c8362000d68565b92508282019050808211156200156757620015666200126c565b5b92915050565b600081519050919050565b600082825260208201905092915050565b6000819050602082019050919050565b620015a48162000e91565b82525050565b6000620015b8838362001599565b60208301905092915050565b6000602082019050919050565b6000620015de826200156d565b620015ea818562001578565b9350620015f78362001589565b8060005b838110156200162e578151620016128882620015aa565b97506200161f83620015c4565b925050600181019050620015fb565b5085935050505092915050565b60006020820190508181036000830152620016578184620015d1565b905092915050565b7f4e487b7100000000000000000000000000000000000000000000000000000000600052603260045260246000fdfe60806040523480156200001157600080fd5b5060405162000f1d38038062000f1d833981810160405281019062000037919062000471565b600081905060005b8151811015620000c5576000828281518110620000615762000060620004c2565b5b60200260200101516040516020016200007b919062000541565b60405160208183030381529060405280519060200120908060018154018082558091505060019003906000526020600020016000909190919091505580806001019150506200003f565b5060006001908054620000da9291906200020d565b5060008151905060005b6000821115620002035760005b60018362000100919062000597565b811015620001db576000808284620001199190620005d2565b815481106200012d576200012c620004c2565b5b90600052602060002001546000600184866200014a9190620005d2565b620001569190620005d2565b815481106200016a5762000169620004c2565b5b9060005260206000200154604051602001620001889291906200063c565b604051602081830303815290604052805190602001209080600181540180825580915050600190039060005260206000200160009091909190915055600281620001d39190620005d2565b9050620000f1565b508181620001ea9190620005d2565b9050600282620001fb91906200069b565b9150620000e4565b50505050620006d3565b828054828255906000526020600020908101928215620002515760005260206000209182015b828111156200025057825482559160010191906001019062000233565b5b50905062000260919062000264565b5090565b5b808211156200027f57600081600090555060010162000265565b5090565b6000604051905090565b600080fd5b600080fd5b600080fd5b6000601f19601f8301169050919050565b7f4e487b7100000000000000000000000000000000000000000000000000000000600052604160045260246000fd5b620002e7826200029c565b810181811067ffffffffffffffff82111715620003095762000308620002ad565b5b80604052505050565b60006200031e62000283565b90506200032c8282620002dc565b919050565b600067ffffffffffffffff8211156200034f576200034e620002ad565b5b602082029050602081019050919050565b600080fd5b600073ffffffffffffffffffffffffffffffffffffffff82169050919050565b6000620003928262000365565b9050919050565b620003a48162000385565b8114620003b057600080fd5b50565b600081519050620003c48162000399565b92915050565b6000620003e1620003db8462000331565b62000312565b9050808382526020820190506020840283018581111562000407576200040662000360565b5b835b818110156200043457806200041f8882620003b3565b84526020840193505060208101905062000409565b5050509392505050565b600082601f83011262000456576200045562000297565b5b815162000468848260208601620003ca565b91505092915050565b6000602082840312156200048a57620004896200028d565b5b600082015167ffffffffffffffff811115620004ab57620004aa62000292565b5b620004b9848285016200043e565b91505092915050565b7f4e487b7100000000000000000000000000000000000000000000000000000000600052603260045260246000fd5b60008160601b9050919050565b60006200050b82620004f1565b9050919050565b60006200051f82620004fe565b9050919050565b6200053b620005358262000385565b62000512565b82525050565b60006200054f828462000526565b60148201915081905092915050565b6000819050919050565b7f4e487b7100000000000000000000000000000000000000000000000000000000600052601160045260246000fd5b6000620005a4826200055e565b9150620005b1836200055e565b9250828203905081811115620005cc57620005cb62000568565b5b92915050565b6000620005df826200055e565b9150620005ec836200055e565b925082820190508082111562000607576200060662000568565b5b92915050565b6000819050919050565b6000819050919050565b6200063662000630826200060d565b62000617565b82525050565b60006200064a828562000621565b6020820191506200065c828462000621565b6020820191508190509392505050565b7f4e487b7100000000000000000000000000000000000000000000000000000000600052601260045260246000fd5b6000620006a8826200055e565b9150620006b5836200055e565b925082620006c857620006c76200066c565b5b828204905092915050565b61083a80620006e36000396000f3fe608060405234801561001057600080fd5b50600436106100575760003560e01c8063174f6e741461005c57806321fb335c1461007a5780633ff721ba146100aa578063501895ae146100da5780635ca1e1651461010a575b600080fd5b610064610128565b6040516100719190610393565b60405180910390f35b610094600480360381019061008f9190610584565b610180565b6040516100a19190610622565b60405180910390f35b6100c460048036038101906100bf919061063d565b61024d565b6040516100d19190610679565b60405180910390f35b6100f460048036038101906100ef919061063d565b610271565b6040516101019190610679565b60405180910390f35b610112610295565b60405161011f9190610679565b60405180910390f35b6060600180548060200260200160405190810160405280929190818152602001828054801561017657602002820191906000526020600020905b815481526020019060010190808311610162575b5050505050905090565b60008083905060005b865181101561023e5760008782815181106101a7576101a6610694565b5b6020026020010151905060006002866101c091906106f2565b036101f55782816040516020016101d8929190610744565b604051602081830303815290604052805190602001209250610221565b8083604051602001610208929190610744565b6040516020818303038152906040528051906020012092505b60028561022e919061079f565b9450508080600101915050610189565b50848114915050949350505050565b6001818154811061025d57600080fd5b906000526020600020016000915090505481565b6000818154811061028157600080fd5b906000526020600020016000915090505481565b60008060016000805490506102aa91906107d0565b815481106102bb576102ba610694565b5b9060005260206000200154905090565b600081519050919050565b600082825260208201905092915050565b6000819050602082019050919050565b6000819050919050565b61030a816102f7565b82525050565b600061031c8383610301565b60208301905092915050565b6000602082019050919050565b6000610340826102cb565b61034a81856102d6565b9350610355836102e7565b8060005b8381101561038657815161036d8882610310565b975061037883610328565b925050600181019050610359565b5085935050505092915050565b600060208201905081810360008301526103ad8184610335565b905092915050565b6000604051905090565b600080fd5b600080fd5b600080fd5b6000601f19601f8301169050919050565b7f4e487b7100000000000000000000000000000000000000000000000000000000600052604160045260246000fd5b610417826103ce565b810181811067ffffffffffffffff82111715610436576104356103df565b5b80604052505050565b60006104496103b5565b9050610455828261040e565b919050565b600067ffffffffffffffff821115610475576104746103df565b5b602082029050602081019050919050565b600080fd5b610494816102f7565b811461049f57600080fd5b50565b6000813590506104b18161048b565b92915050565b60006104ca6104c58461045a565b61043f565b905080838252602082019050602084028301858111156104ed576104ec610486565b5b835b81811015610516578061050288826104a2565b8452602084019350506020810190506104ef565b5050509392505050565b600082601f830112610535576105346103c9565b5b81356105458482602086016104b7565b91505092915050565b6000819050919050565b6105618161054e565b811461056c57600080fd5b50565b60008135905061057e81610558565b92915050565b6000806000806080858703121561059e5761059d6103bf565b5b600085013567ffffffffffffffff8111156105bc576105bb6103c4565b5b6105c887828801610520565b94505060206105d9878288016104a2565b93505060406105ea878288016104a2565b92505060606105fb8782880161056f565b91505092959194509250565b60008115159050919050565b61061c81610607565b82525050565b60006020820190506106376000830184610613565b92915050565b600060208284031215610653576106526103bf565b5b60006106618482850161056f565b91505092915050565b610673816102f7565b82525050565b600060208201905061068e600083018461066a565b92915050565b7f4e487b7100000000000000000000000000000000000000000000000000000000600052603260045260246000fd5b7f4e487b7100000000000000000000000000000000000000000000000000000000600052601260045260246000fd5b60006106fd8261054e565b91506107088361054e565b925082610718576107176106c3565b5b828206905092915050565b6000819050919050565b61073e610739826102f7565b610723565b82525050565b6000610750828561072d565b602082019150610760828461072d565b6020820191508190509392505050565b7f4e487b7100000000000000000000000000000000000000000000000000000000600052601160045260246000fd5b60006107aa8261054e565b91506107b58361054e565b9250826107c5576107c46106c3565b5b828204905092915050565b60006107db8261054e565b91506107e68361054e565b92508282039050818111156107fe576107fd610770565b5b9291505056fea2646970667358221220654eac042aac8e155a9bf9385bb16e963dbb6e97c32e2b66fb50cf09062992e064736f6c63430008180033a264697066735822122013ed6b2f67da49b026bb992b45314e8527118a968ac3bab37de159a93a1636c464736f6c63430008180033",
  "linkReferences": {},
  "deployedLinkReferences": {}
}