{
  "_format": "hh-sol-artifact-1",
  "contractName": "BeneficiaryProof",
  "sourceName": "contracts/BeneficiaryProof.sol",
  "abi": [
    {
      "inputs": [
        {
          "internalType": "address[]",
          "name": "_beneficiaries",
          "type": "address[]"
        }
      ],
      "stateMutability": "nonpayable",
      "type": "constructor"
    },
    {
      "inputs": [],
      "name": "getLeafs",
      "outputs": [
        {
          "internalType": "bytes32[]",
          "name": "",
          "type": "bytes32[]"
        }
      ],
      "stateMutability": "view",
      "type": "function"
    },
    {
      "inputs": [],
      "name": "getRoot",
      "outputs": [
        {
          "internalType": "bytes32",
          "name": "",
          "type": "bytes32"
        }
      ],
      "stateMutability": "view",
      "type": "function"
    },
    {
      "inputs": [
        {
          "internalType": "uint256",
          "name": "",
          "type": "uint256"
        }
      ],
      "name": "hashes",
      "outputs": [
        {
          "internalType": "bytes32",
          "name": "",
          "type": "bytes32"
        }
      ],
      "stateMutability": "view",
      "type": "function"
    },
    {
      "inputs": [
        {
          "internalType": "uint256",
          "name": "",
          "type": "uint256"
        }
      ],
      "name": "leafs",
      "outputs": [
        {
          "internalType": "bytes32",
          "name": "",
          "type": "bytes32"
        }
      ],
      "stateMutability": "view",
      "type": "function"
    },
    {
      "inputs": [
        {
          "internalType": "bytes32[]",
          "name": "proof",
          "type": "bytes32[]"
        },
        {
          "internalType": "bytes32",
          "name": "root",
          "type": "bytes32"
        },
        {
          "internalType": "bytes32",
          "name": "leaf",
          "type": "bytes32"
        },
        {
          "internalType": "uint256",
          "name": "index",
          "type": "uint256"
        }
      ],
      "name": "verify",
      "outputs": [
        {
          "internalType": "bool",
          "name": "",
          "type": "bool"
        }
      ],
      "stateMutability": "pure",
      "type": "function"
    }
  ],
  "bytecode": "0x60806040523480156200001157600080fd5b5060405162000f1d38038062000f1d833981810160405281019062000037919062000471565b600081905060005b8151811015620000c5576000828281518110620000615762000060620004c2565b5b60200260200101516040516020016200007b919062000541565b60405160208183030381529060405280519060200120908060018154018082558091505060019003906000526020600020016000909190919091505580806001019150506200003f565b5060006001908054620000da9291906200020d565b5060008151905060005b6000821115620002035760005b60018362000100919062000597565b811015620001db576000808284620001199190620005d2565b815481106200012d576200012c620004c2565b5b90600052602060002001546000600184866200014a9190620005d2565b620001569190620005d2565b815481106200016a5762000169620004c2565b5b9060005260206000200154604051602001620001889291906200063c565b604051602081830303815290604052805190602001209080600181540180825580915050600190039060005260206000200160009091909190915055600281620001d39190620005d2565b9050620000f1565b508181620001ea9190620005d2565b9050600282620001fb91906200069b565b9150620000e4565b50505050620006d3565b828054828255906000526020600020908101928215620002515760005260206000209182015b828111156200025057825482559160010191906001019062000233565b5b50905062000260919062000264565b5090565b5b808211156200027f57600081600090555060010162000265565b5090565b6000604051905090565b600080fd5b600080fd5b600080fd5b6000601f19601f8301169050919050565b7f4e487b7100000000000000000000000000000000000000000000000000000000600052604160045260246000fd5b620002e7826200029c565b810181811067ffffffffffffffff82111715620003095762000308620002ad565b5b80604052505050565b60006200031e62000283565b90506200032c8282620002dc565b919050565b600067ffffffffffffffff8211156200034f576200034e620002ad565b5b602082029050602081019050919050565b600080fd5b600073ffffffffffffffffffffffffffffffffffffffff82169050919050565b6000620003928262000365565b9050919050565b620003a48162000385565b8114620003b057600080fd5b50565b600081519050620003c48162000399565b92915050565b6000620003e1620003db8462000331565b62000312565b9050808382526020820190506020840283018581111562000407576200040662000360565b5b835b818110156200043457806200041f8882620003b3565b84526020840193505060208101905062000409565b5050509392505050565b600082601f83011262000456576200045562000297565b5b815162000468848260208601620003ca565b91505092915050565b6000602082840312156200048a57620004896200028d565b5b600082015167ffffffffffffffff811115620004ab57620004aa62000292565b5b620004b9848285016200043e565b91505092915050565b7f4e487b7100000000000000000000000000000000000000000000000000000000600052603260045260246000fd5b60008160601b9050919050565b60006200050b82620004f1565b9050919050565b60006200051f82620004fe565b9050919050565b6200053b620005358262000385565b62000512565b82525050565b60006200054f828462000526565b60148201915081905092915050565b6000819050919050565b7f4e487b7100000000000000000000000000000000000000000000000000000000600052601160045260246000fd5b6000620005a4826200055e565b9150620005b1836200055e565b9250828203905081811115620005cc57620005cb62000568565b5b92915050565b6000620005df826200055e565b9150620005ec836200055e565b925082820190508082111562000607576200060662000568565b5b92915050565b6000819050919050565b6000819050919050565b6200063662000630826200060d565b62000617565b82525050565b60006200064a828562000621565b6020820191506200065c828462000621565b6020820191508190509392505050565b7f4e487b7100000000000000000000000000000000000000000000000000000000600052601260045260246000fd5b6000620006a8826200055e565b9150620006b5836200055e565b925082620006c857620006c76200066c565b5b828204905092915050565b61083a80620006e36000396000f3fe608060405234801561001057600080fd5b50600436106100575760003560e01c8063174f6e741461005c57806321fb335c1461007a5780633ff721ba146100aa578063501895ae146100da5780635ca1e1651461010a575b600080fd5b610064610128565b6040516100719190610393565b60405180910390f35b610094600480360381019061008f9190610584565b610180565b6040516100a19190610622565b60405180910390f35b6100c460048036038101906100bf919061063d565b61024d565b6040516100d19190610679565b60405180910390f35b6100f460048036038101906100ef919061063d565b610271565b6040516101019190610679565b60405180910390f35b610112610295565b60405161011f9190610679565b60405180910390f35b6060600180548060200260200160405190810160405280929190818152602001828054801561017657602002820191906000526020600020905b815481526020019060010190808311610162575b5050505050905090565b60008083905060005b865181101561023e5760008782815181106101a7576101a6610694565b5b6020026020010151905060006002866101c091906106f2565b036101f55782816040516020016101d8929190610744565b604051602081830303815290604052805190602001209250610221565b8083604051602001610208929190610744565b6040516020818303038152906040528051906020012092505b60028561022e919061079f565b9450508080600101915050610189565b50848114915050949350505050565b6001818154811061025d57600080fd5b906000526020600020016000915090505481565b6000818154811061028157600080fd5b906000526020600020016000915090505481565b60008060016000805490506102aa91906107d0565b815481106102bb576102ba610694565b5b9060005260206000200154905090565b600081519050919050565b600082825260208201905092915050565b6000819050602082019050919050565b6000819050919050565b61030a816102f7565b82525050565b600061031c8383610301565b60208301905092915050565b6000602082019050919050565b6000610340826102cb565b61034a81856102d6565b9350610355836102e7565b8060005b8381101561038657815161036d8882610310565b975061037883610328565b925050600181019050610359565b5085935050505092915050565b600060208201905081810360008301526103ad8184610335565b905092915050565b6000604051905090565b600080fd5b600080fd5b600080fd5b6000601f19601f8301169050919050565b7f4e487b7100000000000000000000000000000000000000000000000000000000600052604160045260246000fd5b610417826103ce565b810181811067ffffffffffffffff82111715610436576104356103df565b5b80604052505050565b60006104496103b5565b9050610455828261040e565b919050565b600067ffffffffffffffff821115610475576104746103df565b5b602082029050602081019050919050565b600080fd5b610494816102f7565b811461049f57600080fd5b50565b6000813590506104b18161048b565b92915050565b60006104ca6104c58461045a565b61043f565b905080838252602082019050602084028301858111156104ed576104ec610486565b5b835b81811015610516578061050288826104a2565b8452602084019350506020810190506104ef565b5050509392505050565b600082601f830112610535576105346103c9565b5b81356105458482602086016104b7565b91505092915050565b6000819050919050565b6105618161054e565b811461056c57600080fd5b50565b60008135905061057e81610558565b92915050565b6000806000806080858703121561059e5761059d6103bf565b5b600085013567ffffffffffffffff8111156105bc576105bb6103c4565b5b6105c887828801610520565b94505060206105d9878288016104a2565b93505060406105ea878288016104a2565b92505060606105fb8782880161056f565b91505092959194509250565b60008115159050919050565b61061c81610607565b82525050565b60006020820190506106376000830184610613565b92915050565b600060208284031215610653576106526103bf565b5b60006106618482850161056f565b91505092915050565b610673816102f7565b82525050565b600060208201905061068e600083018461066a565b92915050565b7f4e487b7100000000000000000000000000000000000000000000000000000000600052603260045260246000fd5b7f4e487b7100000000000000000000000000000000000000000000000000000000600052601260045260246000fd5b60006106fd8261054e565b91506107088361054e565b925082610718576107176106c3565b5b828206905092915050565b6000819050919050565b61073e610739826102f7565b610723565b82525050565b6000610750828561072d565b602082019150610760828461072d565b6020820191508190509392505050565b7f4e487b7100000000000000000000000000000000000000000000000000000000600052601160045260246000fd5b60006107aa8261054e565b91506107b58361054e565b9250826107c5576107c46106c3565b5b828204905092915050565b60006107db8261054e565b91506107e68361054e565b92508282039050818111156107fe576107fd610770565b5b9291505056fea2646970667358221220654eac042aac8e155a9bf9385bb16e963dbb6e97c32e2b66fb50cf09062992e064736f6c63430008180033",
  "linkReferences": {},
  "deployedLinkReferences": {}
}